:020000040800F2
:10000000180C0020CD0100086129000825240008F3
:1000100071260008690E0008E74100080000000092
:10002000000000000000000000000000B52F0008E4
:10003000550F000800000000152D0008E50100081C
:10004000E7010008E7010008E7010008E7010008F0
:10005000E7010008E7010008E70100080D130008A8
:10006000E7010008451300088D130008E7010008A8
:10007000E7010008E7010008E7010008E7010008C0
:10008000E7010008E7010008E7010008E7010008B0
:10009000E7010008E7010008E7010008D5130008A0
:1000A000E7010008E7010008E7010008E701000890
:1000B000E7010008E701000831340008E701000803
:1000C000E7010008E7010008E7010008E701000870
:1000D000E70100084D3F0008893F0008F13F000894
:1000E00009120008E7010008E7010008E70100081D
:1000F000E7010008E7010008E7010008E701000840
:10010000E7010008E7010008E7010008E70100082F
:10011000E7010008E7010008E7010008E70100081F
:10012000E7010008E7010008E7010008E70100080F
:1001300000F002F800F03AF80AA090E8000C8244BF
:100140008344AAF10107DA4501D100F02FF8AFF29C
:10015000090EBAE80F0013F0010F18BFFB1A43F0A5
:10016000010318477856000098560000103A24BF43
:1001700078C878C1FAD8520724BF30C830C144BF0C
:1001800004680C607047000000230024002500264E
:10019000103A28BF78C1FBD8520728BF30C148BFEA
:1001A0000B6070471FB51FBD10B510BD00F082F881
:1001B0001146FFF7F7FF04F061F800F0A0F803B470
:1001C000FFF7F2FF03BC00F0A7F8000009488047E2
:1001D00009480047FEE7FEE7FEE7FEE7FEE7FEE729
:1001E000FEE7FEE7FEE7FEE704480549054A064B41
:1001F0007047000091310008310100081806002006
:10020000180C0020180800201808002002F0FF0336
:1002100043EA032242EA024200F002B84FF0000231
:100220000429C0F0128010F0030C00F01E80CCF105
:10023000040CBCF1020F18BF00F8012BA8BF20F876
:10024000022BA1EB0C0100F010B85FEAC17C24BFC7
:1002500000F8012B00F8012B48BF00F8012B704774
:100260007047704770474FF0000200B51346944640
:100270009646203922BFA0E80C50A0E80C50B1F1FE
:100280002001BFF4F7AF090728BFA0E80C5048BF12
:100290000CC05DF804EB890028BF40F8042B08BFB0
:1002A000704748BF20F8022B11F0804F18BF00F8AC
:1002B000012B7047754600F02BF8AE4605006946E5
:1002C000534620F00700854618B020B5FFF78CFF95
:1002D000BDE820404FF000064FF000074FF0000847
:1002E0004FF0000B21F00701AC46ACE8C009ACE8C8
:1002F000C009ACE8C009ACE8C0098D46704710B52C
:100300000446AFF300802046BDE81040FFF757BF1A
:1003100000487047B405002001491820ABBEFEE735
:1003200026000200704721B1826842F0010282601B
:1003300003E0826822F001028260704710B5044633
:100340001248844208D10121401502F023FD00210A
:10035000601502F01FFD17E00D48844208D101210D
:10036000001502F017FD0021201502F013FD0BE02F
:100370000848844208D10121C80302F00BFD002186
:100380004FF4004002F006FD10BD000000240140C3
:1003900000280140003C0140014600208A6802F02C
:1003A00004020AB1012000E0002070470146C86C39
:1003B00080B270470246002013680B400BB1012049
:1003C00000E000207047014600208A6802F0080221
:1003D0000AB1012000E000207047000030B502465D
:1003E0000020002350680F4C20400D790C6844EA2F
:1003F00005242043506090680B4C2040D1E9025402
:100400002C434D7944EA450420439060D06A20F49F
:1004100070000C7C641EE4B2234340EA0350D062B7
:1004200030BD0000FFFEF0FFFDF7F1FF70B50024C6
:10043000002504E000F01AF90444681CC5B2052D3B
:10044000F8DB0520B4FBF0F080B270BDF0B50446D7
:100450000D4600200021092D11DDE068A5F10A06F6
:1004600006EB4607072606FA07F18843A5F10A06B8
:1004700006EB460603FA06F10843E0600CE020694B
:1004800005EB4507072606FA07F1884305EB450605
:1004900003FA06F108432061072A0FDA606B561E43
:1004A00006EB86071F2606FA07F18843561E06EB61
:1004B000860605FA06F10843606322E00D2A0FDA8A
:1004C000206BD61F06EB86071F2606FA07F1884326
:1004D000D61F06EB860605FA06F10843206310E0F6
:1004E000E06AA2F10D0606EB86071F2606FA07F161
:1004F0008843A2F10D0606EB860605FA06F10843CD
:10050000E062F0BD816841F008018160704721B16F
:10051000826842F4A002826003E0826822F4A002B2
:1005200082607047816841F004018160704700007B
:1005300010B51948007802280BD017480078032816
:1005400007D0012015490870154800681549086052
:1005500010BD1348006813490968401AB0F5FA7FC6
:1005600000D2F5E70E4800680E4908600B48007895
:1005700080F001000949087007480078022804D17A
:100580000846007803F086FA03E00448007803F098
:100590001FFA00BFDCE70000480000200000002038
:1005A0006C0000200400002010B501200A490870EA
:1005B0000A4800680A4908600A480078022803D1FE
:1005C000012003F067FA06E006480078032802D10C
:1005D000012003F0FDF910BD000000206C00002098
:1005E000040000204800002000B587B001214FF42E
:1005F000017002F0BFFB00208DF81B002020ADF839
:10060000180006A9174801F087FB1748FFF796FE68
:10061000002001908DF808008DF809004FF460204B
:1006200003900020049001208DF8140001A90E48C9
:10063000FFF7D4FE01210C48FFF775FE0A48FFF7CB
:1006400061FF00BF0848FFF7BEFE0028FAD1064848
:10065000FFF768FF00BF0448FFF79EFE0028FAD1AD
:1006600007B000BD000801400024014010B505237B
:10067000012219460848FFF7E9FE01210648FFF765
:1006800046FF00BF02210448FFF794FE0028F9D07E
:100690000148FFF78BFE10BD0024014010B502F0A9
:1006A00089FB012002F048FC00BF212002F012FC6F
:1006B0000028FAD0102001F027FA022001F068FA91
:1006C000002002F02DFC002002F048FC4FF4806076
:1006D00002F038FC4FF4004002F030FB4FF46011A0
:1006E000002002F04DFC012002F044FC00BF392044
:1006F00002F0F0FB0028FAD0022002F04FFC00BF0D
:1007000002F006FC0828FBD10548064908600121D3
:10071000084602F02FFB0121034801F089FB10BDC0
:100720000090D00334000020000230000EB54FF4DA
:10073000A06002F04FF90121084601F0CDFA09212D
:10074000012001F0C9FA0321012001F0C5FA0421BA
:10075000002001F0C1FA0821002001F0BDFA0B21B0
:10076000002001F0B9FA0C21002001F0B5FA0D21AA
:10077000022001F0B1FA0F21002001F0ADFA0020B3
:100780008DF8080010208DF8090001208DF80A006E
:100790004BF61A30019001A800F090FE01208DF870
:1007A000030007208DF8000001208DF801000020D3
:1007B0008DF80200684602F0D5F817208DF8000089
:1007C00001208DF801008DF80200684602F0CAF899
:1007D00009208DF8000002208DF8010000208DF81E
:1007E0000200684602F0BEF80A208DF800000220E0
:1007F0008DF8010001208DF80200684602F0B2F881
:1008000028208DF8000002208DF801008DF80200EC
:10081000684602F0A7F80EBD10B54FF0804002F018
:100820005FFE00B210BD000008B501211C2002F0DF
:10083000A1FA10208DF8030003208DF802004FF27A
:100840002100ADF800006946284801F065FA002053
:10085000274908602749C1F89401254930310860CB
:10086000091D08600120091D08602249C1F8BC016A
:1008700001F0E2FE48208DF803004FF48070ADF8DF
:10088000000069461C4801F047FA28208DF8030053
:1008900049F61000ADF800006946174801F03CFA2F
:1008A0000820ADF800006946104801F035FA4FF411
:1008B0000050ADF800006946104801F02DFA042000
:1008C0008DF8030040F21230ADF800006946074889
:1008D00001F022FA00208DF803004FF48060ADF89B
:1008E00000006946044801F017FA08BD000C0140F9
:1008F0008081214200802142000801400010014017
:1009000000B585B00121082002F034FA0121480524
:1009100002F020FA1C208DF8130003208DF812003D
:10092000C020ADF8100004A90F4801F0F5F900202F
:10093000ADF804004BF6FF70ADF806000020ADF8EE
:1009400008004FF48060ADF80A000001ADF80C001B
:10095000064800906946064801F0BCFD01210448A4
:1009600001F077FD05B000BD000C0140A08601003C
:100970000054004010B5FFF791FEFFF755FFFFF759
:10098000D5FE3F2140F2E73000F0E0F800F068F8D3
:1009900000F090F84FF4E13000F05CF94FF4E130F2
:1009A00000F0BCF94FF4165000F00AFAFFF71CFEF5
:1009B000FFF7A6FF00F01EF910BD00002DE9F04181
:1009C00007460D461646002D04DD49F27C20B0FB9B
:1009D000F5F001E040F2DC50044604B90124601E49
:1009E00081B20F4802F0C8FE012F0BD10D480660FE
:1009F000C4F34F010A4802F0C1FE00200A49C1F8C1
:100A0000B8010BE00748001D0660C4F34F0104481D
:100A100002F0B6FE00200449C1F8BC01BDE8F08137
:100A200000040040B08121420080214210B50446FC
:100A3000012C07D10021084802F0A0FE012007493F
:100A4000086007E00021044802F09AFE01200349F3
:100A5000091D086010BD000000040040B88121425B
:100A60000EB50121C80202F085F94FF6FF70ADF80E
:100A700004000020ADF80000ADF80600ADF802005B
:100A80008DF8080069460A4802F0AAFE20210848AD
:100A900002F057FE0721064802F065FE00210448D7
:100AA00002F070FE0121024802F0EDFC0EBD0000D4
:100AB000002C014000B587B00121042002F05AF952
:100AC0000121084602F046F904208DF81B0003209E
:100AD000ADF8180006A91C4801F01EF94FF6FF708A
:100AE000ADF810000020ADF80C00ADF81200ADF824
:100AF0000E0003A94FF0804002F072FE00231A4658
:100B000003214FF0804002F0CAFC684602F052FD1B
:100B10000020ADF800000A20ADF808006946400743
:100B200002F0F2FC0420ADF800006946000702F074
:100B3000EBFC00214FF0804002F024FE01218807E9
:100B400002F0A1FC07B000BD0008014030B589B03B
:100B500005460C460121042002F00CF90121022077
:100B600002F0F8F818208DF8230003208DF82200F9
:100B7000C020ADF8200008A91C4801F0CDF8ADF860
:100B80001850ADF814400020ADF81A00ADF816006A
:100B900005A9174802F024FE6020ADF804000120EA
:100BA000ADF806000020ADF80A00ADF80C0001A970
:100BB0000F4802F011FD08210D4802F059FD01A96E
:100BC0000B4802F05FFD0821094802F0ADFD01214C
:100BD000074802F049FC4021054802F0BBFD012115
:100BE000034802F050FC09B030BD0000000801408D
:100BF000000400401FB50121042002F0ABF840F2D0
:100C0000E730ADF808003F20ADF804000020ADF853
:100C10000A00ADF8060001A90D4802F0E1FD01222D
:100C200011460B4802F0CFFC1E208DF8000000207A
:100C30008DF801008DF8020001208DF80300684650
:100C400001F090FE0121024802F01DFC1FBD0000D2
:100C50000008004010B586B00446012144F20400AB
:100C600002F088F818208DF8170003208DF8160080
:100C70004FF40070ADF8140005A9264801F04CF8B7
:100C800001940020ADF80800ADF80A00ADF80C00A2
:100C9000ADF810000C20ADF80E0001A91E4803F0BD
:100CA0002DFA1D481430008840F008001A4914310C
:100CB00008800846008820F0020008800846008866
:100CC00020F020000880081F008820F48040091FC1
:100CD00008800846008820F400600880012240F265
:100CE00025510D4803F0E4F925208DF8000003207C
:100CF0008DF8010000208DF8020001208DF803001E
:100D0000684601F02FFE0121034803F08EF906B07A
:100D100010BD0000000801400038014010B586B049
:100D200004460121042002F025F80121480402F0C4
:100D300011F818208DF8170003208DF816000420F4
:100D4000ADF8140005A91C4800F0E6FF04208DF85A
:100D500017000820ADF8140005A9174800F0DCFFC3
:100D600001940020ADF80800ADF80A00ADF80C00C1
:100D7000ADF810000C20ADF80E0001A90F4803F0EB
:100D8000BDF9012240F225510C4803F091F92620CB
:100D90008DF8000003208DF8010001208DF802007D
:100DA0008DF80300684601F0DDFD0121034803F0E2
:100DB0003CF906B010BD00000008014000440040AE
:100DC00010B586B004460121082001F0D3FF0121AF
:100DD000880401F0BFFF18208DF8170003208DF85C
:100DE00016004FF48060ADF8140005A91C4800F00F
:100DF00093FF48208DF817004FF40060ADF8140001
:100E000005A9174800F088FF01940020ADF80800FC
:100E1000ADF80A00ADF80C00ADF810000C20ADF8EC
:100E20000E0001A90F4803F069F9012240F2255193
:100E30000C4803F03DF927208DF8000003208DF8C1
:100E4000010002208DF8020001208DF803006846A1
:100E500001F088FD0121034803F0E7F806B010BD5A
:100E6000000C01400048004000BFFEE730B50246DC
:100E70000C464FF0FF310FE012F8010B4140002308
:100E800008E001F001004042064D284080EA51018F
:100E9000581CC3B2082BF4DB201EA4F10104EBD1D3
:100EA000C84330BD2083B8ED10B500200B49086061
:100EB000052003F0BDF901210F2003F0DDFD08B985
:100EC000002010BD0A2003F0B3F90021042003F034
:100ED000D3FD08B90020F4E70120F2E79481214214
:100EE0002DE9FE4F05460E46174603F0BFFB0421D1
:100EF000012003F04FFB002015490860052003F096
:100F000097F9202003F014FB0446052003F010FBA2
:100F1000C0B20290012000EAD4700190C4F30178BD
:100F2000C4F3894BC4F38339C4F300300090C4F395
:100F3000802ABAF1000F02D00020BDE8FE8F85F8AC
:100F40000080A6F800B087F800900120F5E70000C7
:100F500094812142704700002DE9F04F89B0064688
:100F60008846012E01D1002000E021208146012E7B
:100F700002D14748808801E0454800898246012E19
:100F800002D14348807901E04148807A089008986E
:100F900001F046FB0746002400201F236E2249462D
:100FA000009000F01EFD4D222146641C03A842540F
:100FB00006F13000C2B22146641C03A842542D221F
:100FC0002146641C425401A9504603F0CAFC002586
:100FD00008E001A8425D2046611CCCB203A90A5476
:100FE000681CC5B201A8405D0028F2D152222046FB
:100FF000611CCCB203A90A542D222046611CCCB23C
:1010000003A90A540A2097FBF0FB01A9584603F0F4
:10101000A8FC002508E001A8425D2046611CCCB276
:1010200003A90A54681CC5B201A8405D0028F2D18A
:101030002E222046611CCCB203A90A540A2097FB39
:10104000F0F100FB11703030C2B22046611CCCB20E
:1010500003A90A5441222046611CCCB203A90A54B8
:101060000020085509F10700C1B203AA042000F0CE
:101070001BFCB8F1000F07D002201F236E22494647
:101080000090002000F0CEFB09B0BDE8F08F00001A
:10109000F4000020F8B504460D46012C01D10F20C4
:1010A00000E03020064600200090F01FC1B210235F
:1010B0001A46702000F095FC2DB1062231467720AB
:1010C00000F0B6FA04E006223146772000F021FC59
:1010D000F8BD00002DE9F04F85B080468946924664
:1010E0009B4601F081FC00F085F8022605E03146C0
:1010F000402000F09DFC701CC6B23E2EF7DB03A919
:10110000504603F02EFC402203A90A2000F0DEFB2B
:10111000402236A1222000F0D9FBB8F1000F07D001
:10112000012038231A4604210090084600F07AFB7B
:10113000584601F075FA054600240A2095FBF0F0A8
:1011400001A9009003F00DFC002708E001A8C25D92
:101150002046611CCCB203A90A54781CC7B201A86E
:10116000C05D0028F2D12E222046611CCCB203A91A
:101170000A540A2095FBF0F100FB11503030C2B246
:101180002046611CCCB203A90A5400200855002453
:1011900001E0601CC4B203A8005D0028F9D1E1069B
:1011A000090EC1F13F0000EBD07149104131CFB2BF
:1011B00003AA0A21384600F077FB54240CA222210E
:1011C000204600F071FBB9F1000F07D00120382351
:1011D0001A4604210090442000F024FB01F044FC56
:1011E00001F014FC05B0BDE8F08F000052504D0036
:1011F000414D500008B5012040238022002100907D
:10120000084600F00FFB08BD10B54FF4805000F009
:1012100041F9A8B13148007880F001002F490870E9
:101220000846007810B100202D49087001202D4992
:10123000087000202C4908604FF4805000F024F919
:101240004FF4004000F026F9A8B12848007880F05B
:101250000100264908700846007810B10020244992
:10126000087001201F49087000201F4908604FF4D2
:10127000004000F009F94FF4006000F00BF9B0B144
:101280001C4800681C490870084600781B49C1F8D2
:10129000B8011948007801F0A5FC01201849087030
:1012A0000020114908604FF4006000F0EDF84FF4A1
:1012B000005000F0EFF880B11248007880F0010093
:1012C00010490870084600780F4908600020064958
:1012D00008604FF4005000F0D7F810BD6100002006
:1012E00060000020640000207000002062000020E8
:1012F000630000202C0121425F00002000002242F8
:10130000740000205E0000208081214210B5022080
:1013100000F0C0F878B10848006808B9012000E082
:1013200000200649087001200549087001F02CFCD6
:10133000022000F0A9F810BD048121425C000020C9
:101340007900002010B5082000F0A4F8A0B10B48E7
:10135000007880F00100094908700846007810B153
:10136000002007490870012006490870002006493E
:101370000860082000F088F810BD0000630000201D
:1013800062000020640000207000002010B51020D2
:1013900000F080F8A0B10B48007880F00100094906
:1013A00008700846007810B1002007490870012035
:1013B00006490870002006490860102000F064F813
:1013C00010BD0000600000206100002064000020CB
:1013D0007000002010B54FF4007000F05BF868B1A9
:1013E0001E48006808B9012000E000201C49087070
:1013F00001201C490870400200F046F84FF480704C
:1014000000F048F848B31848006838B90120174977
:101410000870174800681749086017E013480078FB
:10142000A0B113490968134A1268881A00210F4AAB
:101430001170114A117040F23551884205D20F499E
:10144000097811B901210E4A117000BF00200D4921
:1014500008604FF4807000F017F810BD248121421D
:101460005D0000207900002020012142550000206D
:101470006C0000205800002056000020540000207E
:1014800053000020700000200149086070470000F0
:1014900014040140014600200022074B1B6803EAA8
:1014A0000102054B14331B680B4013B10AB1012034
:1014B00000E00020704700000004014000212349A3
:1014C0008279002A3AD00A46126803689A430B468A
:1014D0001A600A1D126803689A430B1D1A6002798C
:1014E00011440A6803681A430A60184A08321268ED
:1014F00003689A43154B08331A601A1D1268036873
:101500009A43124B0C331A604279102A0ED11A1FDB
:10151000126803681A430D4B08331A601A1D1268CB
:1015200003681A43094B0C331A600DE007494279EE
:1015300011440A6803681A430A6005E002791144FD
:101540000A6803689A430A6070470000000401407B
:1015500070B5FFF761F9064609480088301A05B2F0
:10156000284605EBD07149104CB20548008800EBC5
:10157000440000B202490880604240B270BD0000E1
:101580005000002010B5802801DA402900DB10BD92
:10159000CA100A4B03EBC212125C01F007040123CC
:1015A000A3409A43CB10054C04EBC3131A540122F9
:1015B000034B03EBE1031A7000BFE8E7B40100201E
:1015C0007C0000202DE9F047074688461646202E6D
:1015D00001DB7E2E00DD2026A6F12000134901EB61
:1015E000001900241DE019F804A0002515E0802052
:1015F000284100EA0A0038B108EB0402D1B27A1996
:10160000D0B200F015FA06E008EB0402D1B27A1964
:10161000D0B2FFF7B7FF681CC5B2082DE7DB601C2E
:10162000C4B2102CDFDBBDE8F0870000F84A0008E8
:101630002DE9F04F06460F46904644460025C8F176
:101640000109EAE000BF30190FFA80FA78190FFAA1
:1016500080FBBAF1000F0EDBBAF1800F0BDABBF1A1
:10166000000F08DBBBF1400F05DA0BF0FF010AF0B9
:10167000FF0000F0DDF900BF00BF604230440FFA08
:1016800080FA78190FFA80FBBAF1000F0EDBBAF17D
:10169000800F0BDABBF1000F08DBBBF1400F05DA5E
:1016A0000BF0FF010AF0FF0000F0C2F900BF00BF1D
:1016B00030190FFA80FA684238440FFA80FBBAF109
:1016C000000F0EDBBAF1800F0BDABBF1000F08DB65
:1016D000BBF1400F05DA0BF0FF010AF0FF0000F04C
:1016E000A7F900BF00BF604230440FFA80FA684299
:1016F00038440FFA80FBBAF1000F0EDBBAF1800F0D
:101700000BDABBF1000F08DBBBF1400F05DA0BF081
:10171000FF010AF0FF0000F08BF900BF00BF701955
:101720000FFA80FA38190FFA80FBBAF1000F0EDBBE
:10173000BAF1800F0BDABBF1000F08DBBBF1400FF1
:1017400005DA0BF0FF010AF0FF0000F071F900BFAD
:1017500000BF684230440FFA80FA38190FFA80FB54
:10176000BAF1000F0EDBBAF1800F0BDABBF1000FFC
:1017700008DBBBF1400F05DA0BF0FF010AF0FF00B8
:1017800000F056F900BF00BF70190FFA80FA6042EE
:1017900038440FFA80FBBAF1000F0EDBBAF1800F6C
:1017A0000BDABBF1000F08DBBBF1400F05DA0BF0E1
:1017B000FF010AF0FF0000F03BF900BF00BF6842E4
:1017C00030440FFA80FA604238440FFA80FBBAF1D5
:1017D000000F0EDBBAF1800F0BDABBF1000F08DB54
:1017E000BBF1400F05DA0BF0FF010AF0FF0000F03B
:1017F0001FF900BF681C05B2B9F1000F05DC6800D5
:10180000401C48440FFA80F907E0601E04B2281B10
:101810004000401C48440FFA80F9AC42BFF612AFBA
:10182000BDE8F08F2DE9F04F05460E461746984665
:10183000DDF824B0002433E0281900F0FF0910E09F
:101840003019C1B2484600F0F3F806EB0800401E1C
:10185000001BC1B2484600F0EBF809F1010000F0AE
:10186000FF09E819001B4845EADC301900F0FF0ABF
:101870000FE02919C8B2514600F0DAF8E919491EFB
:10188000091BC8B2514600F0D3F80AF1010000F07C
:10189000FF0A06EB0800001B5045EADC601CC4B2DE
:1018A0005C45C9DBBDE8F08F70B505460E461446B1
:1018B00008E014F8012B31462846FFF783FE05F1B6
:1018C0000800C5B220780028F3D170BD2DE9F041A1
:1018D00007460D461646002401E0601CC4B2285D90
:1018E0000028FAD1B6EBC40F05DC2A463946FFF7CB
:1018F000DBFFBDE8F081E106A6EB116000EBD071E3
:10190000C1F347082A4639464046FFF7CDFF00BFDE
:10191000EFE72DE9F04780460C4691464D460026FC
:10192000C9F1010A59E0A8EB050007B21AE0002F3F
:1019300016DB802F14DAA019002807DBA019402835
:1019400004DAA219D1B2F8B200F072F8A01B07D4E1
:10195000A01B402804DAA21BD1B2F8B200F068F84C
:10196000781C07B208EB0500B842E0DAA8EB0600E5
:1019700007B21AE0002F16DB802F14DA6019002856
:1019800007DB6019402804DA6219D1B2F8B200F01E
:101990004FF8601B07D4601B402804DA621BD1B2E9
:1019A000F8B200F045F8781C07B208EB0600B84220
:1019B000E0DA701C06B2BAF1000F05DC7000401CC2
:1019C00050440FFA80FA07E0681E05B2701B400011
:1019D000401C50440FFA80FA00BFB542A3DABDE8BC
:1019E000F0872DE9F04704460D4690469946DDF80C
:1019F00020A02E4615E027460DE0BAF1000F04D0D6
:101A00003146384600F014F803E031463846FFF717
:101A1000B9FD781CC7B204EB0800B842EDDC701CBD
:101A2000C6B205EB0900B042E5DCBDE8F087000076
:101A300010B5802801DA402900DB10BDCA100B4B1D
:101A400003EBC212125C01F007040123A340DBB2D6
:101A50001A43CB10054C04EBC3131A540122044B58
:101A600003EBE1031A7000BFE7E70000B4010020B8
:101A70007C00002030B5044604254FF4302000F0EF
:101A80009FF80546042D17D10C48006940F002006C
:101A90000A49086108464461006940F04000086155
:101AA0004FF4302000F08CF805460448006941F6F8
:101AB000FD71084001490861284630BD0020024000
:101AC00004200B49C96801F0010109B101200EE0B1
:101AD0000749C96801F0040109B1022007E004497F
:101AE000C96801F0100109B1032000E0042070472B
:101AF000002002400348006940F08000014908616D
:101B000070470000002002400549096821F01001DB
:101B1000034A1160114609680143116070470000D3
:101B20000020024078B506460C46042500200090AF
:101B3000E80200F045F80546042D24D11348006959
:101B400040F00100114908613480E80200F038F8E3
:101B50000546042D10D1B01C0090200C009908807F
:101B6000E80200F02DF805460848006941F6FE71CC
:101B700008400649086106E00448006941F6FE7124
:101B8000084002490861284678BD00000020024054
:101B900001460020034A106800F038000843106036
:101BA0007047000000200240024803494860034893
:101BB000486070472301674500200240AB89EFCDA4
:101BC00000B502460423FFF77BFF034603E0FFF75F
:101BD00077FF0346521E012B01D1002AF7D102B92B
:101BE0000523184600BD000070B5144C0C2120469A
:101BF000FFF73CF9054612492068884207D1E068A2
:101C0000A84204D10F4894E84E004EC014E00C489E
:101C10000C490860642088801B2088710020C871EE
:101C200064200881092088720020C8720C210548B0
:101C3000FFF71CF90349C86070BD000000FC0008F4
:101C400034125AA5F40000202DE9F0471F4820491E
:101C500008600C211E48FFF709F91D49C860FFF70D
:101C6000A3FF1C48FFF706FF8046B8F1040F04D01D
:101C7000FFF740FF0020BDE8F087DFF85490154ED5
:101C800000240EE059F824103046FFF74BFF804641
:101C9000B8F1040F03D0FFF72DFF0020EBE7361D4E
:101CA000641C042CEED3FFF725FF0A4D0C212846B7
:101CB000FFF7DCF8074605492868884204D1E86840
:101CC000B84201D10120D6E70020D4E734125AA54A
:101CD000F400002000FC000830B500228B071C0F28
:101CE0000F2303FA04F20B4B8C1053F82430934368
:101CF000084C8D1044F8253023468C1053F82430BE
:101D00008C07240F00FA04F42343024C8D1044F88E
:101D1000253030BD080001402DE9F0410246002584
:101D20000026002000230024002791F803C00CF0B7
:101D30000F0591F803C00CF0100CBCF1000F03D09C
:101D400091F802C04CEA050591F800C0BCF1000F03
:101D500031D0146800202BE04FF0010C0CFA00F396
:101D6000B1F800C00CEA03069E4220D183004FF078
:101D70000F0C0CFA03F7BC4305FA03FC4CEA04040D
:101D800091F803C0BCF1280F06D14FF0010C0CFAFA
:101D900000FCC2F814C00AE091F803C0BCF1480F7F
:101DA00005D14FF0010C0CFA00FCC2F810C0401C29
:101DB0000828D1D31460B1F800C0BCF1FF0F34DDA6
:101DC000546800202EE000F1080C4FF0010808FADA
:101DD0000CF3B1F800C00CEA03069E4221D1830047
:101DE0004FF00F0C0CFA03F7BC4305FA03FC4CEA66
:101DF000040491F803C0BCF1280F05D100F1080CD0
:101E000008FA0CF8C2F8148091F803C0BCF1480F2E
:101E100007D100F1080C4FF0010808FA0CF8C2F8DD
:101E20001080401C0828CED35460BDE8F08100002B
:101E3000F0B50A46002300240021002500F00046EA
:101E4000B6F1004F02D11D4EF16901E01B4E7168E1
:101E5000C0F3034583B200F44016B6F5401F08D125
:101E600021F07061154E766826F07066134F7E6023
:101E700012E000F48016B6F5801F06D1032606FA9C
:101E800005F4A14341F0706106E0460D360103FA06
:101E900006F6B14341F0706122B1460D360103FAF6
:101EA00006F6314300F00046B6F1004F02D1034E72
:101EB000F16101E0014E7160F0BD000000000140E1
:101EC0000020044908700449086001200349087093
:101ED00070470000480000207000002074000020BF
:101EE00010B52148007830B1002020490870204901
:101EF00008601D4908701D48007880B9FEF7D4FFBE
:101F0000044601201949087014B101F013FE05E0E0
:101F1000184800681649086001F0EAFD00BF14483F
:101F2000006850B11348006811490968401AB0F5BB
:101F3000FA6F02D9FFF7C4FF10BD0F48007840B117
:101F400000200D49087007200C490870012006493F
:101F500008700B48007820B1002009490870FFF78D
:101F6000AFFF00BFE8E70000740000201800002069
:101F70001C0000206C0000205300002048000020BE
:101F8000540000203EB53548007850B10020344957
:101F900008703449086034490870344908702F4982
:101FA00008702F48007888BB0020029001900090B4
:101FB0006A4601A902A8FEF793FF044601202849BA
:101FC00008702B48006827490860BCB101202749E8
:101FD00008709DF8080027490870BDF804002649DC
:101FE00008809DF80000254908709DF80020BDF884
:101FF00004109DF8080001F0DDFD06E01A480078A5
:10200000401C1949087001F0B5FD00BF1748007861
:1020100058B11748006813490968401A40F6B831AA
:10202000884201D9FFF74CFF16E0114800680D49BE
:102030000968401AB0F5FA6F0ED90B4800780328EA
:1020400002DBFFF73DFF07E00D48007820B10020DC
:102050000B490870024908703EBD00007400002062
:10206000200000202400002028000020290000205B
:102070006C0000202A0000202C0000202E000020F0
:102080005300002070B504469CB104EB440016498F
:102090000978084445B2002D00DA00251F2D00DD27
:1020A0001F2511490D70012010490870FEF77CFAB8
:1020B00000BF0F48007868B100200D49087000F09B
:1020C0008DFF01200B49087000200B49086001209A
:1020D000064908700948007820B1002007490870B7
:1020E00000F06AFF70BD00004E0000207400002068
:1020F0005300002048000020700000205400002001
:10210000B0B128490978052907D1002801DC01214F
:1021100000E00021234A117007E02249097809B93B
:10212000012100E000211F4A117001211E4A117097
:102130001E49097879B300211C4A117019490978A0
:1021400019B118490978012925D11649097809B921
:10215000012100E00221164A11700021154A117078
:1021600013490978012902D11349898801E01249EC
:102170000989124A11800E490978012902D10E49B4
:10218000897901E00C49897A0D4A117001210D4AC3
:102190001170054A11700C49097811B100210A4AE1
:1021A0001170704749000020740000205300002087
:1021B0004B0000204A000020F40000204C000020CA
:1021C0004E000020480000205400002010B50446B6
:1021D00084B11549097809B9012100E000210846B8
:1021E00008B1012100E000210F4A117001210F4ABE
:1021F000117000BF0E48007868B100200C490870CB
:102200000948007808B9022000E003200949087055
:102210000120064908700848007820B100200649CE
:102220000870FFF74DFE10BD4A000020740000202A
:1022300053000020480000205400002010B500F09A
:102240006BFD40F6B83001F0F3FF01F0C5FD4FF42F
:102250007A7001F0EDFFFFF733FE10BD70B547480F
:10226000007890B1464800684649086044480068D4
:1022700045490860002045490870454908704549AE
:1022800008603E49087001F0D3FD404800780028FE
:1022900047D14148007830B100203F4908703848A4
:1022A0000068394908603D48B0F88400002808DD1E
:1022B0003348006834490968401AC82801D9012008
:1022C00000E0002004463548B0F8840050B92C489E
:1022D00000682C490968401A40F6B831884201D993
:1022E000012000E0002005466CB1294800F0F0FE16
:1022F00001202649087022480068264908602448C1
:1023000001F096FD0CE05DB101202049087000202D
:102310001F4908701A4800681E49086001F0E6FD70
:102320002AE01F480078A0B100201D49087000F085
:10233000F3FE134800681349086011480068124909
:1023400008600020114908701149087001200B49EC
:1023500008700F48007810B940F6C41001E041F24F
:1023600088300446064800680A490968401AA042B5
:1023700001D9FFF7A5FD00BF70BD0000740000206B
:102380006C000020080000200C000020100000203D
:10239000B400002014000020680000200401002088
:1023A0005300002070B50546B5B105EBC50000EB44
:1023B0000510164909884418192C00DA192440F22E
:1023C000DC50844200DD044610490C800120104995
:1023D0000870FEF7E9F800BF0E48007868B10020E9
:1023E0000C49087000F0FAFD01200B49087000202C
:1023F0000A4908600120064908700948007820B1A0
:1024000000200749087000F0D7FD70BD4C00002087
:1024100074000020530000204800002070000020BD
:102420005400002000BFFEE770B5024600240025DE
:1024300000230020958A138B1B0445EA030626F02F
:102440007F4404EA01068E4201D1012000E0002011
:1024500070BD21B1028842F00102028004E00288CE
:102460004FF6FE731A400280704721B1028842F491
:102470008072028004E002884FF6FF631A400280F7
:10248000704721B1028842F40072028004E00288A1
:102490004FF6FF531A40028070470CB502460020E9
:1024A00000230193009300920B0F019321F07F41D1
:1024B000019B1BB1009B1433009303E0090C009BAC
:1024C00018330093009B1B680B400BB1012000E008
:1024D00000200CBD2DE9F04385B004460D460026D2
:1024E000B1460427DFF8CC80A6884FF6C0700640BE
:1024F000684600F085FCDDF808802F48B8FBF0F056
:102500001FFA80F946EA0906A68020884FF6FE7178
:102510000840208000262949286888420CD828686D
:102520004000B8FBF0F087B2042F00DA04273E43E6
:1025300009F10100208427E0E8884BF6FF7188420A
:1025400006D1286800EB4000B8FBF0F087B209E044
:10255000286800EBC00101EB0010B8FBF0F087B277
:1025600047F48047C7F30B0008B947F0010747F469
:10257000004006434FF4967009FB00F04FF47A7167
:1025800090FBF1F0401C2084A683208840F00100DD
:10259000208026884FF6F5300640A88869890843D0
:1025A00006432680A88929890843208105B0BDE813
:1025B000F083000000127A0040420F00A086010064
:1025C00012B141F0010102E04FF6FE7319400182A1
:1025D000704701827047000010B542F2107400BFCE
:1025E0004FF400310448FFF758FF18B1201EA4F142
:1025F0000104F5D110BD00000054004070B5044640
:1026000042F2107500BF21460448FFF70DFF18B9CC
:10261000281EA5F10105F6D170BD00000054004050
:102620000146481C40F2465250434FF44862B0FB0A
:10263000F2F080B27047000008B50121102000F0D0
:1026400099FB4FF48040ADF8000010208DF8030096
:1026500002208DF8020069460348FFF75DFB012068
:102660000249086008BD000000100140B801224284
:1026700000BFFEE710B50021034801F07FF80020FD
:102680000249888010BD0000000400409C01002029
:1026900010B51449888810B940F2DB5207E049F2BE
:1026A0007C22B2FBF0F101B901214A1E92B214461C
:1026B00021460D4801F060F800210B4801F05EF85A
:1026C0000021094801F05CF801F088FF0548817994
:1026D000012002F007F80348817A022002F002F894
:1026E00010BD0000F40000200004004010B5354883
:1026F000007802280BDB002033490870334908704A
:1027000033490870334908703349087010BD2D48AB
:10271000007801281BD130480078B8B12A480078E9
:1027200018B1012000F074FA05E02848007810B1D3
:10273000002000F06DFA002023490870234908703A
:10274000234908702349087023490870DEE72248AE
:10275000007800B9DAE700201F4908701A480078AD
:1027600030B11E4881880122104600F0DDF80EE0ED
:102770001648007830B1194881880022012000F005
:10278000D3F804E000221146012000F0CDF81048F3
:10279000007830B1114801890122022000F0C4F80C
:1027A0000EE00C48007830B10C480189002202206C
:1027B00000F0BAF804E000221146022000F0B4F85C
:1027C00000BFA3E79400002060000020610000200B
:1027D000620000206300002064000020F40000205C
:1027E0002DE9F047002696E006EB46004C4901EB48
:1027F0008004701C00F0FF084A49A06809680F1A9D
:10280000052F00D285E047480068A0604FF47A7039
:1028100078434FF47A71B0FBF1F085B205B9012528
:102820002088F0B9A088A84208DDA088401BA080BD
:10283000A279A1884046FEF7C1F811E0A0880028DF
:1028400007DD0020A0804046FEF7F0F80020E07190
:1028500006E0E07920B14046FEF7E8F80020E0719C
:1028600057E0A079A178884213D0A088002810DD15
:10287000A088A84208DDA088401BA080A279A1887A
:102880004046FEF79BF803E00020A080A078A071EE
:102890003FE0A08890B94FF01E092088484501DA32
:1028A000B4F80090A4F80490A078A071A279A1884F
:1028B0004046FEF783F80120E0712AE0A0882188D5
:1028C000884210DAA08800EB05092088484502D824
:1028D0002088A08001E0A4F80490A279A188404655
:1028E000FEF76CF815E0A0882188884210DDA088EA
:1028F00021882944884202DA2088A08002E0A0884A
:10290000401BA080A279A1884046FEF757F800E05E
:1029100000BF701CC6B2022EFFF666AFBDE8F0879E
:102920009C0100206C00002030B5012801DB02284A
:1029300000DD30BD431E03EB4303084C24F8231095
:102940000AB1012400E00024431E03EB4303034DBE
:1029500005EB83039C7000BFEBE700009C010020A7
:102960007047000070B5002100230F22C47804B323
:10297000154C246804F4E064C4F5E064210AC1F154
:102980000403CA40447804FA03F1847814402143D4
:1029900009010E4C0678A155047804F01F050124A6
:1029A000AC4005786D11AD0005F1E025C5F800419A
:1029B00009E0047804F01F050124AC40044D0678BA
:1029C000761145F8264070BD0CED00E000E400E013
:1029D00080E100E002490143024A116070470000B3
:1029E0000000FA050CED00E010B54FF480610548D9
:1029F000FDF714FC012208210348FDF707FC00F055
:102A000005F810BDB40100207C00002010B50024A2
:102A100013E00B48005D00B90DE00021204600F0F6
:102A20002DF8084800EBC411204600F069F800209A
:102A30000349085500BF601CC4B2082CE9DB10BD77
:102A40007C000020B401002010B5002405E00549F9
:102A5000085D00F027F8601CC4B2172CF7D3FFF70D
:102A6000C3FF10BD6857000810B5012208210248B5
:102A7000FDF7CCFB10BD00007C00002070B50546C2
:102A80000C46A01CC4B245F0B00000F00BF804F0F6
:102A90000F0000F007F8102141EA241000F002F8BE
:102AA00070BD000010B50446FFF796FD01211148E6
:102AB000FFF7DBFC1048FFF7A1FD002278210D484D
:102AC000FFF77EFD0D48FFF799FD00210948FFF74C
:102AD00080FD0A48801CFFF791FD21460548FFF75D
:102AE00078FD0648801CFFF789FD01210148FFF7AA
:102AF000C8FC10BD00540040010003008200070024
:102B000070B506460D46FFF767FD01211448FFF733
:102B1000ACFC1448FFF772FD002278211048FFF743
:102B20004FFD1148FFF76AFD40210D48FFF751FDA9
:102B30000D48801CFFF762FD002409E0295D08486C
:102B4000FFF747FD0848801CFFF758FD601CC4B222
:102B5000802CF3DB01210248FFF793FC70BD0000DD
:102B600000540040010003008200070000200349D8
:102B700008700348007803490870704794000020EB
:102B80005C0000209900002010B511480078022850
:102B900000D010BD00BF0F4800880F490880FFF724
:102BA00069FD00BF00200B49088000BF0B4800787A
:102BB00008B9012000E00020024609488188012070
:102BC000FFF7B2FE03200249087000BFE1E70000F2
:102BD00094000020242C0140960000209800002042
:102BE000F400002010B5044634B10848007858B904
:102BF00001200649087007E00448007820B1FFF77B
:102C000039FD00200149087010BD0000940000202B
:102C100010B5044610480078012800D010BD0CB152
:102C2000012000E000200D4908700D4800780D4992
:102C3000087000200C49088000BF0C49088000BFC4
:102C40000B488188054802780120FFF76DFE0220BD
:102C50000149087000BFE1E79400002098000020BF
:102C60005C0000209900002096000020242C0140E8
:102C7000F400002070B52048007818B11E48007894
:102C8000012804D11D4800781D49087070BD1B48FB
:102C900004781B480078844201D0012000E0002025
:102CA00005461748047014480078022802D003280B
:102CB0001DD103E00DB1FFF767FF19E000BF114818
:102CC000008811490988884210DBFFF7D3FC00BF58
:102CD00000200C49088000BF0C4881880C4802780D
:102CE0000120FFF721FE02200349087000E000BF29
:102CF00000BF00BFCAE70000940000205C00002075
:102D000099000020242C014096000020F4000020AF
:102D1000980000207047000010B5002409E0064923
:102D200051F8240001F09CFE322001F081FA601C71
:102D3000C4B2052CF3DB10BD9857000801460020F3
:102D4000034A506820F44040084350607047000038
:102D50000010024029B1064AD2690243044BDA61ED
:102D600004E0034AD2698243014BDA6170470000F4
:102D70000010024029B1064A92690243044B9A614D
:102D800004E0034A92698243014B9A617047000054
:102D90000010024029B1064AD2680243044BDA60AF
:102DA00004E0034AD2688243014BDA6070470000B6
:102DB000001002400F48006840F001000D49086013
:102DC000084640680C4908400A49486008460068BF
:102DD0000A490840074908600846006820F4802036
:102DE00008600846406820F4FE0048604FF41F0069
:102DF00088607047001002400000FFF8FFFFF6FEF9
:102E000030B500210022002400232D4D6D6805F00F
:102E10000C0121B1042905D0082923D105E0294D51
:102E2000056022E0274D05601FE0254D6D6805F423
:102E30007012234D6D6805F48034022505EB924233
:102E40001CB9214D554305600BE01D4D6D6805F41F
:102E500000351DB11C4D5543056002E0194D554329
:102E6000056002E0174D056000BF00BF144D6D689E
:102E700005F0F0010909154D6B5C0568DD40456002
:102E80000F4D6D6805F4E061090A104D6B5C4568F3
:102E9000DD4085600A4D6D6805F46051C90A0B4D2F
:102EA0006B5C4568DD40C560054D6D6805F44041CB
:102EB000890B074D6B5CC568B5FBF3F5056130BD4B
:102EC0000010024000127A0000093D009E00002020
:102ED000AE00002010B501460022002300204A1158
:102EE000012A02D1094C236806E0022A02D1074CCC
:102EF000236A01E0054C636A01F01F02012494403B
:102F00001C400CB1012000E0002010BD0010024068
:102F10000248406800F00C007047000000100240BA
:102F200001460020034A506820F0F000084350603A
:102F3000704700000010024001490860704700001F
:102F40000000424201460020034A506820F4E0603D
:102F50000843506070470000001002400146002006
:102F6000034A506820F4605040EAC1005060704746
:102F7000001002400149086670470000000042420C
:102F800002460020044B586820F47C1042EA0103FA
:102F90001843014B58607047001002400146002062
:102FA000034A506820F00300084350607047000057
:102FB000001002407047000010B500F00FF800202C
:102FC000034908700349086001200349087010BDD7
:102FD0004800002070000020740000202DE9F0411E
:102FE00000263348007801281AD132480088324937
:102FF00088803248007888712E49088810B940F2DC
:10300000DB5207E049F27C22B2FBF0F101B9012169
:103010004A1E92B290464146294800F0ADFB06E0B8
:1030200024480088244908812448007888720027B1
:103030000CE0224801781E48007800F072FC064639
:1030400016B9052001F0F4F8781CC7B2032F01DA95
:10305000002EEED0FEF7F8FD054695B900240EE0EF
:10306000002018490860962001F0E2F80120164976
:10307000C1F8B801962001F0DBF8601CC4B2032C43
:10308000EEDB96B900240EE000200E4908605020C7
:1030900001F0CEF801200C49C1F8B801502001F030
:1030A000C7F8601CC4B2052CEEDBBDE8F08100005F
:1030B0004B0000204C000020F40000204E000020B7
:1030C00000040040B8012242000022427047000084
:1030D00030B5014601B930BD0E4BB3F88420402A0B
:1030E00000DB3F2200200FE00A4DB5F880502B187E
:1030F000DD1703EB5565ED11A3EBC515ACB2054B20
:103100001B5D0B54431C98B29042EDDB00238B54A3
:1031100000BFE0E70401002010B51048006830B19E
:1031200001F06EFA0C210E4801F056FC10BD4FF470
:10313000E13001F075FA20B14FF4E1300749086041
:10314000F4E74FF4165001F06BFA20B14FF416502B
:1031500002490860EAE700BFE8E7000090000020AD
:103160008B5700087047042808D14FF0E021096907
:1031700041F004014FF0E022116107E04FF0E0213F
:10318000096921F004014FF0E0221161704700004D
:1031900010B51348006840F0010011490860084666
:1031A0004068104908400E494860084600680E49CA
:1031B00008400B4908600846006820F48020086039
:1031C0000846406820F4FE0048604FF41F00886005
:1031D000FFF7C8FF4FF000600449086010BD000011
:1031E000001002400000FFF8FFFFF6FE08ED00E0CF
:1031F000F0B50C46154600220021068C4FF6FE77EE
:103200003E400684028B018C4FF60C7632407E1CC9
:1032100006EA03162E433243104EB0420ED0104E33
:10322000B0420BD0B0F1804F08D00E4EB04205D066
:103230000D4EB04202D00D4EB04206D14FF6FD7693
:10324000314044F00106314305E04FF6F576314058
:1032500044F00106314302830184F0BD002C01409B
:10326000003401400004004000080040000C004011
:10327000F0B50C461546002200210026078C4FF6BB
:10328000EF7C07EA0C070784028B018C4FF6FF776F
:1032900007EA041640F6FF473A404FF6FF7707EA81
:1032A00003373A434FF6FF7707EA05273A43114FB2
:1032B000B8420ED0104FB8420BD0B0F1804F08D0BA
:1032C0000E4FB84205D00E4FB84202D00D4FB84253
:1032D00006D14FF6DF77394046F01007394305E055
:1032E0004FF65F77394044F0100739430283018479
:1032F000F0BD0000002C01400034014000040040FB
:1033000000080040000C0040F0B50C4615460022B5
:1033100000210026078C4FF6FF6C07EA0C07078494
:10332000828B018C4FF6FF7707EA04264FF60C7765
:103330003A404FF6FF7707EA03172F433A43114FFE
:10334000B8420ED0104FB8420BD0B0F1804F08D029
:103350000E4FB84205D00E4FB84202D00D4FB842C2
:1033600006D14FF6FF57394046F48077394305E0E0
:103370004FF2FF57394044F4807739438283018408
:10338000F0BD0000002C014000340140000400406A
:1033900000080040000C0040F0B50C461546002225
:1033A00000210026078C4EF6FF7C07EA0C070784F5
:1033B000828B018C4FF6FF7707EA043640F6FF4711
:1033C0003A404FF6FF7707EA05273A434FF6FF7773
:1033D00007EA03373A43114FB8420ED0104FB842B4
:1033E0000BD0B0F1804F08D00E4FB84205D00E4F31
:1033F000B84202D00D4FB84206D14DF6FF773940A2
:1034000046F48057394305E047F6FF57394044F406
:103410008057394382830184F0BD0000002C0140B5
:10342000003401400004004000080040000C00404F
:1034300010B50121094800F056F868B1012107488C
:1034400000F01EF806480068401C05490860054861
:103450000068401C0349086010BD000000080040DF
:103460006C0000207000002021B1028842F0800230
:10347000028004E002884FF67F731A400280704792
:10348000CA430282704721B1028842F001020280E1
:1034900004E002884FF6FE731A4002807047F0B5D0
:1034A0000C4615461E460021002200230189028B8E
:1034B000038C4FF6F877394021434FF6FC473A40EA
:1034C00040F201173A434FF6DD773B404FF6FF7766
:1034D00007EA06172F433B43018102830384F0BDB3
:1034E0000146888C704730B5024600200023002436
:1034F000158A05EA0103958905EA010413B10CB1A7
:10350000012000E0002030BD70B505460C4624487F
:1035100085420ED0234885420BD0B5F1804F08D0AC
:103520002148854205D02148854202D02048854265
:1035300000D100E000BF208850B92389A2886188AB
:103540002846FFF755FEE188284600F01DF925E0E2
:10355000208804280AD12389A28861882846FFF799
:1035600087FEE188284600F018F917E0208808282F
:103570000AD12389A28861882846FFF7C5FEE18821
:10358000284600F017F909E02389A28861882846B7
:10359000FFF702FFE188284600F015F970BD000032
:1035A000002C0140003401400004004000080040AD
:1035B000000C004000210180418001218180002118
:1035C000C180018170471AB183890B43838102E076
:1035D00083898B438381704770B5002400220023C8
:1035E000058C4FF6FE7635400584028C8388048B6B
:1035F0004FF68F752C40B51E2C400D882C43751E40
:103600002A400D892A434D882A43144DA8420BD0E5
:10361000134DA84208D0134DA84205D0124DA84220
:1036200002D0124DA84213D14FF6F7752A404D89AA
:103630002A434FF6FB752A408D882A434FF6FF65D3
:103640002B404FF6FF552B408D892B43CD892B43C3
:1036500083800483CD888586028470BD002C014060
:103660000034014000400140004401400048014056
:103670000A460021018B4FF6F7731940114301836D
:103680007047000070B5002400220023058C4FF61F
:10369000EF7635400584028C8388048B48F6FF75ED
:1036A0002C404FF6FF452C400D884FF6FF7606EA7A
:1036B00005252C434FF6DF752A400D8906EA0515CE
:1036C0002A434D8806EA05152A43154DA84202D023
:1036D000144DA8421DD14FF67F752A404D894FF6F3
:1036E000FF7606EA05152A434FF6BF752A408D88F6
:1036F00006EA05152A434FF6FF352B404FF2FF75BA
:103700002B408D8906EA85052B43CD8906EA850580
:103710002B4383800483CD880587028470BD00001D
:10372000002C0140003401400A460021018B4FF279
:10373000FF7319404FF6FF7303EA02231943018315
:1037400070470A46002101894FF68F7319401143D3
:103750000181704782884FF68F731A408280828879
:103760000A438280704702894FF6F8731A4002813B
:1037700002890A43028170478185704781867047BC
:103780000187704781847047028B4FF6F3731A40AC
:103790000283028B0A4302837047028B4FF2FF338E
:1037A0001A400283028B4FF6FF7303EA01231A4388
:1037B00002837047828B4FF6F3731A408283828BA9
:1037C0000A4382837047828B4FF2FF331A40828311
:1037D000828B4FF6FF7303EA01231A4382837047FB
:1037E000002202881D4B98420ED01D4B98420BD0F0
:1037F000B0F1804F08D01B4B984205D01A4B98422D
:1038000002D01A4B984204D14FF68F731A404B885E
:103810001A43174B984207D0164B984204D04FF6E4
:10382000FF431A40CB881A4302808B8883850B881C
:1038300003850A4B98420BD0094B984208D00E4B97
:10384000984205D00D4B984202D00D4B984201D1C1
:103850000B7A03860123838270470000002C01400D
:10386000003401400004004000080040000C00400B
:10387000001000400014004000400140004401409E
:103880000048014038B50446012C01D1002000E079
:1038900002200546002000900F4A6C21284600F0C7
:1038A000FFFF022000F0C4FC6A466C21284600F0AD
:1038B0005BFF08B9002038BD0098C0F303600528FD
:1038C00001D00020F7E7009800F4803008B1002014
:1038D000F1E70120EFE700005301000538B5044689
:1038E000012C01D1002000E00220054600200090BC
:1038F000C1220021284600F0D3FF022000F098FCEE
:103900006A460021284600F02FFF08B9002038BD84
:10391000009800F0C100C12801D10120F7E7002084
:10392000F5E72DE9FC4105460C46012D01D10020AB
:1039300000E002208046204604EBD071C1F3470628
:1039400000200190009001AA0221404600F00CFFE7
:1039500010B90020BDE8FC814FF4C02040EA0420EB
:1039600040EA06073A461021404600F099FF02203F
:1039700000F05EFC6A460221404600F0F5FE08B900
:103980000020E7E70098C1B20198401CC0B2814214
:1039900001D10120DEE70020DCE7000010B5094876
:1039A000006809490968401AB0F57A7F09D30548CB
:1039B000006805490860FCF739FD0449088000F0FB
:1039C00009FA10BD6C0000203000002066000020C5
:1039D0002DE9FF4707460020102338220A210090D6
:1039E0004420FDF7FEFF002F47D000242748007831
:1039F000FEF716FE804600260A2098FBF0FA69467C
:103A0000504600F0AEFF002508E01DF805202046D6
:103A1000611CCCB202A90A54681CC5B21DF805008D
:103A20000028F2D12E222046611CCCB202A90A54F1
:103A30000A2098FBF0F100FB11803030C2B2204622
:103A4000611CCCB202A90A540020085501E0701C88
:103A5000C6B202A8805D0028F9D1F106090EC1F1B5
:103A60003F0000EBD0714910413101F0FF0902AA7B
:103A70000A214846FDF718FF00BF0120044948709D
:103A80008870C870FEF7C2FFBDE8FF874E000020B7
:103A90007C0000207CB50446002010233C220A2133
:103AA00000900220FDF79DFFB4B169460E480088E2
:103AB00000F057FF0646F106090EC1F1400000EB89
:103AC000D071C1F34705022D00DA02256A460A21AA
:103AD0002846FDF7E9FE00BF0120044948708870C0
:103AE000C870FEF793FF7CBD4C0000207C000020D6
:103AF00010B5FEF779FFFDF77DFB802206A10C20B3
:103B0000FDF7E4FE802207A12420FDF7DFFEFEF78B
:103B1000ABFFFEF77BFF10BD434F4D4D20464149A3
:103B20004C000000434845434B2053454E534F52F1
:103B30000000000010B5FEF757FFFDF75BFB802289
:103B400006A10C20FDF7C2FE802206A12420FDF76D
:103B5000BDFEFEF789FFFEF759FF10BD43414C2023
:103B60004F4B0000505245535320544F2052454173
:103B70004400000010B5FEF737FFFDF73BFB802245
:103B800006A10C20FDF7A2FE802207A12420FDF74C
:103B90009DFEFEF769FFFEF739FF10BD5245414417
:103BA000204641494C00000052454D4F5645205497
:103BB000554245002DE9FC4107460D461646FEF7E5
:103BC00013FFFDF717FB6946384600F0CAFE0446AE
:103BD000E106080E00EBD071284A1278A2EB6101D1
:103BE00001F0FF086A460C214046FDF75DFE69467C
:103BF000284600F0B6FE0446E106080E00EBD07140
:103C00001E4A5278A2EB610101F0FF086A460C21BE
:103C10004046FDF749FE6946304600F0A2FE0446E4
:103C2000E106080E00EBD071144A9278A2EB610114
:103C300001F0FF086A460C214046FDF735FE0F49AA
:103C400009780C39C8B20EA22421FDF72DFE0B49CC
:103C500049780C39C8B20BA22421FDF725FE07498B
:103C600089780C39C8B208A22421FDF71DFEFEF7A1
:103C7000FBFEFEF7CBFEBDE8FC8100008857000884
:103C8000414743004C4544005245460010B50948A1
:103C90000078012802D10848808801E006480089A0
:103CA000044606480378224601210020FDF712FA57
:103CB00010BD00004B000020F40000204E0000204A
:103CC00010B5FEF791FE1548007808B9012000E014
:103CD000002001460120FDF73FF910480078012837
:103CE00000D100E0002001460220FDF735F90C4824
:103CF00001780120FDF7CEF90A4801780220FDF78E
:103D0000C9F90948007820B1522218217820FDF71E
:103D100059FCFEF7A9FEFEF779FE10BD4900002010
:103D20005C0000205D0000205F00002070B513489B
:103D30000078012802D11248808801E010480089EB
:103D400004460E480078012802D10D48807901E030
:103D50000B48807A05460B4A1278012A00D100E010
:103D600000221146074A12780AB9012200E0002217
:103D700010462B462246FDF7ADF970BD4B000020E2
:103D8000F40000204A00002010B50E48007800B171
:103D900010BD0D4801780120FDF77CF90B48017832
:103DA0000220FDF777F90A48007820B15222182145
:103DB0007820FDF707FCFEF757FEFEF727FE00BF51
:103DC000E6E70000480000205C0000205D000020C5
:103DD0005F0000207047000010B5FEF705FEFDF7FC
:103DE00009FA802204A11820FDF770FDFEF73CFEC1
:103DF000FEF70CFE10BD00005052494E54204F4BB0
:103E00000000000010B5FEF7EFFDFDF7F3F980228A
:103E100004A11820FDF75AFDFEF726FEFEF7F6FD79
:103E200010BD00005052494E54494E47000000005A
:103E3000F0B589B00546FEF7D7FDFDF7DBF92DB9E2
:103E4000802228A11820FDF741FD45E000200590C3
:103E5000069007900890019002900390049000242F
:103E600001E0601CC4B2285D08B11C2CF9DB0E2CEB
:103E700001DD0E2000E020460746002604E0A85D94
:103E800005A98855701CC6B2BE42F8DB0E2C15DDA4
:103E9000A4F10E020E2A01DD0E2202E0A4F10E02B0
:103EA000D2B21146002006E000F10E02AA5C01AB7E
:103EB0001A54421CD0B28842F6DB00BF802205A90A
:103EC0001020FDF703FD9DF8040020B1802201A918
:103ED0002420FDF7FBFC00BFFEF7C6FDFEF796FDB4
:103EE00009B0F0BD5343414E2E2E2E0010B5FEF703
:103EF0007BFDFDF77FF9802204A11820FDF7E6FC89
:103F0000FEF7B2FDFEF782FD10BD00005343414EA7
:103F1000204641494C00000010B5094800780128AE
:103F200002D10848807901E00648807A0446234699
:103F30000548028800210120FDF7CCF810BD0000E3
:103F40004B000020F40000204C00002010B540F28F
:103F500025510A4800F082F878B1084800F03AF993
:103F6000C4B207480078102806DA05490878411CD1
:103F7000034A117003490C5400BF10BD00380140C2
:103F8000690000208A01002010B540F22551154833
:103F900000F064F820B3134800F01CF9C4B21248D2
:103FA000B0F88400802817DA0F48B0F882000E4974
:103FB0000C54B1F88210481CC11700EB5161C911B3
:103FC000A0EBC111084AA2F882101046B0F8840094
:103FD000401C1146A1F8840001200449087000BF6C
:103FE00010BD0000004400400401002068000020D3
:103FF00010B540F22551044800F030F810B10248E5
:1040000000F0E8F810BD00000048004010B50022A4
:10401000002340F66A14A14200D100BF0A12012415
:104020009440A3B2DC43048010BD21B1828942F4E4
:104030000052828104E082894DF6FF731A4082812A
:10404000704702460020B1F5007F00D100BF138801
:104050000B400BB1012000E00020704770B5024614
:10406000002400230025002040F66A16B14200D14A
:1040700000BFC1F3421501F01F03012606FA03F346
:10408000012D02D19689334006E0022D02D1168A15
:10409000334001E0968A33400C12012606FA04F4FC
:1040A0001688344013B10CB1012000E0002070BD2F
:1040B000F0B50346002400260025002040F66A17CC
:1040C000B94200D100BF1846C1F3421401F01F06E7
:1040D000012707FA06F5012C01D10C3004E0022C6F
:1040E00001D1103000E014301AB107682F43076087
:1040F00002E00768AF430760F0BD00002DE9F0471C
:1041000086B005460E460024A24600BFA146002701
:10411000B08900B100BF2F462C8A4CF6FF700440D6
:10412000F08804432C82AC894EF6F3100440B0882A
:1041300031890843718908430443AC81AC8A4FF646
:10414000FF400440B0890443AC8201A8FEF758FE4A
:104150001F48874202D1DDF810A001E0DDF80CA075
:10416000A88900F4004040B10AEBCA0000EB0A1035
:1041700031684900B0FBF1F807E00AEBCA0000EB38
:104180000A1031688900B0FBF1F86420B8FBF0F048
:1041900004012009642101FB1089A88900F4004072
:1041A00040B1322000EBC900B0FBF1F000F0070095
:1041B000044308E0322000EB09106421B0FBF1F069
:1041C00000F00F0004432C8106B0BDE8F08700002A
:1041D0000038014001468888C0F308007047C1F3E9
:1041E00008028280704700BFFEE7000010B56FF044
:1041F0000400FEF7B8FF0A4800680A49B0FBF1F076
:10420000094908700846007800EB4001C1EBC01076
:104210004FF6FF7101EAC0000449088010BD00009C
:104220003400002000127A009A0000209C00002038
:104230000146114A12884A434FF0E0235A61002296
:104240009A611A46126942F001021A6100BF4FF0EA
:10425000E022106900F001021AB100F48032002A55
:10426000F5D04FF0E022126922F001024FF0E02376
:104270001A6100229A6170479C000020FCF77AFBCB
:10428000FFF7B4FF9148006891490870084600782C
:104290009049C1F8B801FDF7A7FCFCF7C7F88E49B3
:1042A00008808E48006808B9012000E000208C4991
:1042B00008708A482030006808B9012000E000201A
:1042C00088490870FEF7C0FBFEF7E2F9FEF74EFCE6
:1042D0004FF4FA60FFF7ACFFFEF7F8FEFCF79CFA2C
:1042E00081490880FFF7ECFCEEE0FDF731F9054667
:1042F00015B100207D4908607D48007898B17D485F
:10430000007880B97C4800687C490968401A40F20E
:104310003551884207D301207949087075490870E2
:104320000020724908607148006847F230518842A5
:1043300009D37448007830B100207349087070497F
:104340000870FDF7BDFDFEF7D1F9FEF793FCFEF70F
:1043500047FA6C4804780078082870D2DFE800F04B
:1043600004132D4E707D889A2846FDF7C9FE6748D4
:10437000007838B16348007820B9FFF7A1FC00202D
:104380006249087092E02846FDF720FF5F480078F8
:1043900018B95C480078A0420ED05A48007801282D
:1043A00002D1FFF7C3FC04E05648007808B9FFF7D4
:1043B00087FC00205549087078E02846FDF7F2FF99
:1043C0005248007818B94F480078A04215D04D489F
:1043D0000078022802D1FFF79FFD0BE049480078E2
:1043E000012802D1FFF7A2FC04E04648007808B992
:1043F000FFF766FC00204549087057E02846FDF7A6
:1044000041FE4248007818B93E480078A04215D0D5
:104410003C480078032802D1FFF738FC0BE039480C
:104420000078012802D1FFF781FC04E035480078CC
:1044300008B9FFF745FC00203449087036E034E045
:104440003248007840B1FFF7DDFC00202F490870AA
:10445000FDF7F4FEFFF734FC28E0FDF7FFFE2948E6
:10446000007820B9FFF72CFC0020284908701DE0D7
:10447000FDF736FD2548007818B922480078A0429B
:1044800007D02048007808B9FFF71AFC00201F4920
:1044900008700BE0FDF776FD1A48007820B9FFF7A9
:1044A0000FFC00201949087000E000BF00BFFFF7B3
:1044B00075FA1748007820B1002015490870FFF7F9
:1044C00063FCFCF735F800BF0FE700002C01214228
:1044D0005F0000200000224266000020048121428B
:1044E0005C0000205D0000205000002070000020D3
:1044F00055000020560000206C00002058000020CD
:1045000054000020480000205300002074000020C8
:104510007900002010B50120FFF78AFE03480068EB
:10452000C4B20120FFF784FE204610BD1081214255
:1045300070B504460025002605E0FFF7EBFF40EAD2
:104540004505701CC6B2A642F7DB284670BD0000C8
:1045500010B5044664B100200C4908600120FFF743
:1045600067FE01200A49C1F89401FFF761FE0BE0E4
:10457000012006490860FFF75BFE00200449C1F8EE
:1045800094010120FFF754FE10BD000094812142E8
:104590000080214270B505460E46701E44B207E009
:1045A00025FA04F101F00100FFF7D2FF601E44B2CA
:1045B000002CF5DA70BD000008B504208DF803006A
:1045C00003208DF802004FF40070ADF8000069463A
:1045D0000148FDF7A1FB08BD0008014008B51820FF
:1045E0008DF8030003208DF802004FF40070ADF841
:1045F000000069460148FDF78FFB08BD0008014037
:1046000000200549A1F88000A1F88200A1F88400EB
:104610000249087070470000040100206800002073
:1046200070B50446204600F0EDF91420FFF700FEB7
:10463000FFF7E6FF0C210A4800F0CEF909480568AB
:1046400006E00948B0F88400002801DD012070BDB3
:1046500004480068401BB0F5967FF2D30020F6E7CF
:104660008B5700086C0000200401002010B50024C6
:1046700004E00120FFF76CFF601CC4B2082CF8DBDB
:1046800010BD000072B6054800880448001D00886F
:1046900000200349087062B67047000000380140EE
:1046A0006900002070B502460C46002014E012F8A4
:1046B000011B00230EE001F0010585EAE01525B19C
:1046C000072585EA4005E8B201E04506280E4910B5
:1046D0005D1CEBB2082BEEDB251EA4F10106F4B243
:1046E000E5D170BD70B505460E46002409E02846A8
:1046F000FFF7F4F800B106E00520FFF799FD601C14
:10470000C4B2032CF3DB00BF00240AE03146284684
:10471000FFF707F900B106E00520FFF789FD601CEF
:10472000C4B2032CF2DB00BF002409E02846FFF7E7
:10473000A9F800B106E00520FFF77AFD601CC4B2BD
:10474000032CF3DB00BF002409E0284600F0DBF86F
:1047500000B106E00520FFF76BFD601CC4B2032C1E
:10476000F3DB00BF70BD00002DE9FE4306460D4699
:10477000174605208DF808008DF809608DF80A505D
:10478000032102A8FFF78EFF8DF80B00FFF77AFFD9
:104790000220FFF74DFD002405E002A9085D00F0AE
:1047A0005FF8601CC4B2042CF7DB00F06DF8FFF773
:1047B00003FF2848D0F800800AE026480068A0EBF4
:1047C00008000A2804D9FFF709FF0020BDE8FE838E
:1047D000214800780C28F0DBFFF700FF0A20FFF7E4
:1047E00027FD002406E0201D1C49085C0DF804008C
:1047F000601CC4B2082CF6DB07216846FFF752FFA5
:104800009DF80710884201D00020DFE79DF80000E6
:10481000052801D00020D9E79DF80100FF2801D02C
:104820000020D3E79DF80200A84201D00020CDE788
:104830009DF8030000069DF8041040EA01409DF831
:10484000051040EA01209DF8061008433860012059
:10485000BCE700006C000020690000208A010020F5
:1048600010B5044640F226610648FFF7CFFB054825
:10487000001D048000BF80210248FFF7E2FB0028F2
:10488000F9D010BD0038014010B500BF40210348E9
:10489000FFF7D7FB0028F9D010BD00000038014019
:1048A0002DE9FC4106460F46144605208DF8000010
:1048B0008DF8016047F080008DF80200200E8DF821
:1048C0000300200C8DF80400200A8DF80500E0B2EA
:1048D0008DF8060007216846FFF7E4FE8DF8070013
:1048E000FFF7D0FE002505E01DF80500FFF7B8FF33
:1048F000681CC5B2082DF7DBFFF7C6FF0A20FFF7DB
:1049000097FCBDE8FC817CB50446012C01D1002058
:1049100000E00220054600200190009001AA02213B
:104920002846FFF721FF08B900207CBD0122132192
:104930002846FFF7B5FF0220FFF77AFC6A460221FE
:104940002846FFF711FF08B90020EEE70098C1B232
:104950000198401CC0B2814201D10120E5E700204E
:10496000E3E77EB5024600242AB930200870002013
:10497000487001207EBD0DE00A20B2FBF0F500FB7F
:10498000152030302546661CF4B20DF805000A20CB
:10499000B2FBF0F2002AEFD1002306E0601EC01A3D
:1049A0001DF80000C854581CC3B2A342F6DB002017
:1049B00008552046DEE7000010B5044600BF802100
:1049C0000448FFF73EFB0028F9D021460148FFF7D5
:1049D00006FC10BD0044004070B505460E4600249C
:1049E00004E0285DFFF7E8FF601CC4B2B442F8DBC6
:1049F00000BF40210248FFF724FB0028F9D070BD1A
:104A0000004400401FB5044600210C48FFF70DFB91
:104A100000940020ADF80400ADF80600ADF80800E1
:104A2000ADF80C000C20ADF80A0069460348FFF70A
:104A300065FB01210148FFF7F8FA1FBD0044004063
:104A400010B5044600BF80210448FFF7FAFA002899
:104A5000F9D021460148FFF7C2FB10BD00480040D5
:104A600010B5044603E014F8010BFFF7E9FF2078C6
:104A70000028F8D110BD00002DE9F04104460D4694
:104A8000FFF7F4FD04210C20FFF784FD0221084606
:104A9000FFF780FD04F00F000421FFF77BFD0020ED
:104AA000FFF756FD05F00100FFF752FD00200F490A
:104AB00008600F4806680F48D0F81001C7B20DE033
:104AC0000A488438006800F0FF08B84502D0012089
:104AD000BDE8F0810220FFF7ABFB00BF044800688F
:104AE000801B6428ECD30020F2E70000948121426F
:104AF0006C00002000802142000000000000000047
:104B000000000000000000000000183C3C3C1818A9
:104B10001800181800000000006363632200000002
:104B2000000000000000000000000036367F36362E
:104B30007F36360000000000000C0C3E6361301E22
:104B40000343633E0C0C0000000000006163060C90
:104B5000183363430000000000001C36361C3B6E17
:104B600066666E3B00000000001818180800000080
:104B7000000000000000000000000E1C1830303063
:104B80003030181C0E00000000007038180C0C0C9F
:104B90000C0C1838700000000000000000361C7F6C
:104BA0001C3600000000000000000000181818FF6C
:104BB00018181800000000000000000000000000AD
:104BC000000018181810000000000000000000FF8E
:104BD00000000000000000000000000000000000D5
:104BE0000000181800000000000000030306060C77
:104BF000183060400000000000003C66666E7E7663
:104C00006666663C00000000000018387818181826
:104C10001818187E0000000000003C6606060C18FC
:104C20003060667E0000000000003C6606061C0640
:104C30000606663C000000000000060E1E36666692
:104C40007F0606060000000000007E6060607C06B3
:104C50000606663C0000000000001C3060607C66B8
:104C60006666663C0000000000007E66060C0C18BC
:104C7000181818180000000000003C6666663C66C4
:104C80006666663C0000000000003C6666663E0604
:104C900006060C3800000000000000001818000094
:104CA00000181800000000000000000018180000A4
:104CB0000018181000000000000000060C183060FA
:104CC00030180C060000000000000000007E00000C
:104CD0007E000000000000000000006030180C069C
:104CE0000C1830600000000000003C6606060C183E
:104CF000180018180000000000003E636F696F6024
:104D0000623E0000000000000000183C6666667EFF
:104D1000666666660000000000007C6666667C666B
:104D20006666667C0000000000003C6660606060B3
:104D30006060663C000000000000786C6666666695
:104D400066666C780000000000007E6060607C6039
:104D50006060607E0000000000007E6060607C603B
:104D6000606060600000000000003C666060606E93
:104D70006666663C000000000000666666667E6649
:104D8000666666660000000000003C1818181818D7
:104D90001818183C0000000000001E0C0C0C0C0C35
:104DA0000C6C6C3800000000000066666C6C787853
:104DB0006C6C66660000000000006060606060600F
:104DC0006060607E00000000000063777F6B6363BB
:104DD0006363636300000000000063737B7F6F67A1
:104DE000636363630000000000003C6666666666FD
:104DF0006666663C0000000000007C6666667C60BB
:104E0000606060600000000000003C6666666666E8
:104E1000666E6C360000000000007C6666667C787A
:104E20006C6666660000000000003C6660603C0640
:104E30000606663C000000000000FF18181818184D
:104E4000181818180000000000006666666666669E
:104E50006666663C00000000000066666666666680
:104E6000663C3C18000000000000636363636B6BEA
:104E70007F77636300000000000066663C3C181802
:104E80003C3C6666000000000000666666663C18F2
:104E9000181818180000000000007E06060C1830D4
:104EA0006060607E00000000003C30303030303008
:104EB000303030303C000000000000406030180C02
:104EC0000603000000000000003C0C0C0C0C0C0C55
:104ED0000C0C0C0C3C00000000183C6600000000AC
:104EE00000000000000000000000000000000000C2
:104EF00000000000FF0000000030180C000000005F
:104F00000000000000000000000000003C06063E1B
:104F10006666663B0000000000006060607C6666BC
:104F20006666667C00000000000000003C66606071
:104F30006060663C0000000000000606063E6666F3
:104F40006666663B00000000000000003C66667E6E
:104F50006060663C0000000000000E18187E181803
:104F60001818181800000000000000003B66666674
:104F7000663E06663C00000000006060607C66667D
:104F800066666666000000000000181800381818F1
:104F90001818183C0000000000000606000E060667
:104FA00006060606663C00000000606060666C78DD
:104FB000786C666600000000000038181818181891
:104FC0001818183C0000000000000000667F6B6BA2
:104FD0006B6B636300000000000000007C66666687
:104FE0006666666600000000000000003C666666BB
:104FF0006666663C00000000000000007C66666695
:10500000667C606060000000000000003B66666631
:10501000663E06060600000000000000666E706036
:105020006060606000000000000000003C66603CC2
:105030000606663C00000000000018187E181818CC
:1050400018181C0E0000000000000000666666666E
:105050006666663B0000000000000000666666664B
:10506000663C3C18000000000000000063636B6BAE
:105070007F773622000000000000000066663C18C2
:10508000183C666600000000000000006666663E90
:1050900006063C7800000000000000007E060C18A8
:1050A0003060607E00000000000E18181818307084
:1050B000301818180E0000000018181818181818C2
:1050C00018181818180000000070181818180C0E7E
:1050D0000C181818700000000000715B4E000000F2
:1050E000000000000000000002000200FFFE0210AD
:1050F000022003C002400440044008421042204203
:1051000040420042003E00000400040004007FF022
:1051100004100410041004100410FFFE001000100E
:10512000001000100010000008000800FFFE08003A
:10513000088009F00A0008002FF0281049F04910F3
:1051400089F009100600000000407C4044407C408B
:10515000447E7C400040FFFE00407C4044407C4058
:1051600044407C4004400000080008000808FFFCA0
:10517000080008000FF008100810081008100FF0C1
:10518000080008000000000000087FFC0208010081
:105190003FF0011001103FF0011001103FF001102D
:1051A00001103FF00100000002000208FFFE0200B3
:1051B00002001FF810081FF810081FF80408040860
:1051C0000408082810100000000007F00020FFFE6F
:1051D000000007F0041007F0041007F00000FFFEC5
:1051E00004100B2810C60000000007F8040804088B
:1051F0000408FFFE040804080408040807F804086B
:10520000000800100060000001000080FFFE0000A8
:1052100001F001100110FFFE010001F0011001106A
:1052200001100550082000000100010001003FF8B6
:10523000210821082108FFFE2108210821083FF844
:10524000010001000100000001000100FFFE01005B
:10525000028002400440183027CC400400040004BF
:105260000008003000000000100013FE1020102085
:10527000FF201020102013FE1020102018201420D2
:10528000122211C200020000040004000400040005
:10529000FFFE0400040004000404040204020402EB
:1052A00007FE040000000000010021081110092081
:1052B0007FFC01001110111021085FF48002000032
:1052C0003FF800080008000000003FFC2004200414
:1052D000200427C4244424442444244427C424040C
:1052E000200420043FFC0000010000807FFC4004FB
:1052F0009FF200003FF8210821083FF8210821080B
:105300003FF82108002800100000FFFE0100010006
:1053100001001FF00100010001003FF8010001043D
:105320000104010401FC000010201840108011F855
:10533000FE10142024404480C50044A044904488BA
:1053400044844482408200001100111009247FFE31
:1053500001007FFC0100FFFE0300050809041104A1
:1053600021024102810200000000FFFE042004200F
:10537000042004207FFC04200420042004200422B4
:105380000422081E100000001FF010101FF0000083
:10539000FFFE0410042804C4FFFE041004107FFC68
:1053A000444444447FFC00040000FFE0010001008D
:1053B00001F8FF080108010801F8010001000104DB
:1053C0000104010401FC000000007FFC0004000453
:1053D0001FE410241024FFE41024102410241FE4E0
:1053E000000400047FFC00000040784008400840B2
:1053F000FFFE084018402840484209420A4208423D
:10540000083E08000800000008000800FFFE080031
:1054100008001FE011201FE010201FE010201420C2
:10542000122411221020000008100810FFFE08109E
:1054300008107E7808107E7808107E7842004208B6
:105440007E1C42344262000001000110FFFE011088
:105450007D1055FE55107D10551055FE7D10011024
:1054600001100110FFFE00000100210811100920A9
:105470000540038001003FF8210821083FF821087A
:1054800021083FF82108000000003FFC2444244488
:105490003FFC24443FFC0000FFFE082008203FF8AA
:1054A00008200820FFFE0000010001003FFC21044D
:1054B00021042104210421043FFC00007FFE40025E
:1054C00040027FFE4002000000800080FFFE00805E
:1054D0003E8022A83E9022A83EC0228002C002A0A8
:1054E00002900288028400001FE0102010201FE0BC
:1054F000102010201FE00400FFFE0440044004427E
:1055000008421042603E000004000400FFFE042038
:105510001FF010101FF010101FF010101FF00000EF
:10552000FFFE000000000000010001003FF821081C
:1055300021083FF801007FFC01000110010801046F
:10554000010401020102000000407E4004400440CA
:10555000FFFE04400440044004427E44044C0458CE
:10556000047004400440000008000800FFFE08002A
:105570003EF822083EF822083EF82208220823F8C6
:10558000220822082208000002000200FFFE02108A
:10559000022003C00240044004400842104220425E
:1055A00040420042003E0000010001007FFC01007B
:1055B0001FF0030005000900110421044104010447
:1055C0000104010401FC00000000FFFE042004208F
:1055D000042004207FFC0420042004200420042252
:1055E0000422081E10000000FFFF800180018001DE
:1055F00080018001800180018001800180018001A3
:10560000800180018001FFFFFFFF80018001800198
:105610008001800180018001800180018001800182
:10562000800180018001FFFFFFFF80018001800178
:105630008001800180018001800180018001800162
:10564000800180018001FFFFFFFF80018001800158
:105650008001800180018001800180018001800142
:10566000800180018001FFFFFFFF80018001800138
:105670008001800180018001800180018001800122
:10568000800180018001FFFFFFFF80018001800118
:105690008001800180018001800180018001800102
:1056A000800180018001FFFFFFFF800180018001F8
:1056B00080018001800180018001800180018001E2
:1056C000800180018001FFFFFFFF800180018001D8
:1056D00080018001800180018001800180018001C2
:1056E000800180018001FFFFFFFF800180018001B8
:1056F00080018001800180018001800180018001A2
:10570000800180018001FFFFFFFF80018001800197
:105710008001800180018001800180018001800181
:10572000800180018001FFFFFFFF80018001800177
:105730008001800180018001800180018001800161
:10574000800180018001FFFFFFFF80018001800157
:105750008001800180018001800180018001800141
:10576000800180018001FFFFAED580A83FD30040BB
:10577000AD8BA1C8DA1281A0D922DB35A4A6AF0077
:10578000162B16151502030414406C0200010500C7
:105790000411000001100300B8570008BC570008AE
:1057A000C4570008CC570008D457000843414C00A8
:1057B00053434E0050525400410D0A0042420D0A1C
:1057C000000000004343430D0A00000044444444E9
:1057D0000D0A000045454545450D0A00FC570008E7
:1057E00000000020B40000006C010008B058000860
:1057F000B4000020640B00008801000801000000D4
:105800000000000000000000000000000000000098
:105810000000000000000000000000000000000088
:105820000000000000000000000000000000000078
:1058300000127A00000000000000000001020304D2
:10584000060708090005000164001B0000000000B5
:105850000000000000000000000000000000000048
:105860000000000000000000000000000000000038
:105870000100000000000000000000000000000027
:10588000B4570008AC570008B057000800000000EB
:105890000000000001000000000000000000010204
:1058A00003040102030406070809020406080000B5
:04000005080001CD21
:00000001FF
